{
  "_format": "hh-sol-artifact-1",
  "contractName": "ChallengeFactory",
  "sourceName": "contracts/ChallengeFactory.sol",
  "abi": [
    {
      "anonymous": false,
      "inputs": [
        {
          "indexed": false,
          "internalType": "address",
          "name": "challengeAddress",
          "type": "address"
        },
        {
          "indexed": false,
          "internalType": "string",
          "name": "title",
          "type": "string"
        },
        {
          "indexed": false,
          "internalType": "uint256",
          "name": "timestamp",
          "type": "uint256"
        }
      ],
      "name": "ChallengeCreated",
      "type": "event"
    },
    {
      "inputs": [
        {
          "internalType": "uint256",
          "name": "",
          "type": "uint256"
        }
      ],
      "name": "challenges",
      "outputs": [
        {
          "internalType": "contract Challenge",
          "name": "",
          "type": "address"
        }
      ],
      "stateMutability": "view",
      "type": "function"
    },
    {
      "inputs": [
        {
          "internalType": "string",
          "name": "_title",
          "type": "string"
        },
        {
          "internalType": "string",
          "name": "_description",
          "type": "string"
        }
      ],
      "name": "createChallenge",
      "outputs": [],
      "stateMutability": "nonpayable",
      "type": "function"
    },
    {
      "inputs": [],
      "name": "getAllChallenges",
      "outputs": [
        {
          "internalType": "contract Challenge[]",
          "name": "",
          "type": "address[]"
        }
      ],
      "stateMutability": "view",
      "type": "function"
    }
  ],
  "bytecode": "0x6080604052348015600f57600080fd5b5061116b8061001f6000396000f3fe608060405234801561001057600080fd5b50600436106100415760003560e01c8063829ef1ac146100465780638f1d377614610064578063c730810f14610094575b600080fd5b61004e6100b0565b60405161005b9190610397565b60405180910390f35b61007e60048036038101906100799190610403565b61013e565b60405161008b919061043f565b60405180910390f35b6100ae60048036038101906100a991906105a0565b61017d565b005b6060600080548060200260200160405190810160405280929190818152602001828054801561013457602002820191906000526020600020905b8160009054906101000a900473ffffffffffffffffffffffffffffffffffffffff1673ffffffffffffffffffffffffffffffffffffffff16815260200190600101908083116100ea575b5050505050905090565b6000818154811061014e57600080fd5b906000526020600020016000915054906101000a900473ffffffffffffffffffffffffffffffffffffffff1681565b600082823360405161018e9061025c565b61019a939291906106b8565b604051809103906000f0801580156101b6573d6000803e3d6000fd5b5090506000819080600181540180825580915050600190039060005260206000200160009091909190916101000a81548173ffffffffffffffffffffffffffffffffffffffff021916908373ffffffffffffffffffffffffffffffffffffffff1602179055507fb92b508ece8b8953c73472a1c5584fa240c168063d1450a732310be6d9d07b2f81844260405161024f9392919061070c565b60405180910390a1505050565b6109eb8061074b83390190565b600081519050919050565b600082825260208201905092915050565b6000819050602082019050919050565b600073ffffffffffffffffffffffffffffffffffffffff82169050919050565b6000819050919050565b60006102da6102d56102d084610295565b6102b5565b610295565b9050919050565b60006102ec826102bf565b9050919050565b60006102fe826102e1565b9050919050565b61030e816102f3565b82525050565b60006103208383610305565b60208301905092915050565b6000602082019050919050565b600061034482610269565b61034e8185610274565b935061035983610285565b8060005b8381101561038a5781516103718882610314565b975061037c8361032c565b92505060018101905061035d565b5085935050505092915050565b600060208201905081810360008301526103b18184610339565b905092915050565b6000604051905090565b600080fd5b600080fd5b6000819050919050565b6103e0816103cd565b81146103eb57600080fd5b50565b6000813590506103fd816103d7565b92915050565b600060208284031215610419576104186103c3565b5b6000610427848285016103ee565b91505092915050565b610439816102f3565b82525050565b60006020820190506104546000830184610430565b92915050565b600080fd5b600080fd5b6000601f19601f8301169050919050565b7f4e487b7100000000000000000000000000000000000000000000000000000000600052604160045260246000fd5b6104ad82610464565b810181811067ffffffffffffffff821117156104cc576104cb610475565b5b80604052505050565b60006104df6103b9565b90506104eb82826104a4565b919050565b600067ffffffffffffffff82111561050b5761050a610475565b5b61051482610464565b9050602081019050919050565b82818337600083830152505050565b600061054361053e846104f0565b6104d5565b90508281526020810184848401111561055f5761055e61045f565b5b61056a848285610521565b509392505050565b600082601f8301126105875761058661045a565b5b8135610597848260208601610530565b91505092915050565b600080604083850312156105b7576105b66103c3565b5b600083013567ffffffffffffffff8111156105d5576105d46103c8565b5b6105e185828601610572565b925050602083013567ffffffffffffffff811115610602576106016103c8565b5b61060e85828601610572565b9150509250929050565b600081519050919050565b600082825260208201905092915050565b60005b83811015610652578082015181840152602081019050610637565b60008484015250505050565b600061066982610618565b6106738185610623565b9350610683818560208601610634565b61068c81610464565b840191505092915050565b60006106a282610295565b9050919050565b6106b281610697565b82525050565b600060608201905081810360008301526106d2818661065e565b905081810360208301526106e6818561065e565b90506106f560408301846106a9565b949350505050565b610706816103cd565b82525050565b600060608201905061072160008301866106a9565b8181036020830152610733818561065e565b905061074260408301846106fd565b94935050505056fe608060405234801561001057600080fd5b506040516109eb3803806109eb83398181016040528101906100329190610275565b82600090816100419190610521565b5081600190816100519190610521565b5080600260006101000a81548173ffffffffffffffffffffffffffffffffffffffff021916908373ffffffffffffffffffffffffffffffffffffffff160217905550426003819055505050506105f3565b6000604051905090565b600080fd5b600080fd5b600080fd5b600080fd5b6000601f19601f8301169050919050565b7f4e487b7100000000000000000000000000000000000000000000000000000000600052604160045260246000fd5b610109826100c0565b810181811067ffffffffffffffff82111715610128576101276100d1565b5b80604052505050565b600061013b6100a2565b90506101478282610100565b919050565b600067ffffffffffffffff821115610167576101666100d1565b5b610170826100c0565b9050602081019050919050565b60005b8381101561019b578082015181840152602081019050610180565b60008484015250505050565b60006101ba6101b58461014c565b610131565b9050828152602081018484840111156101d6576101d56100bb565b5b6101e184828561017d565b509392505050565b600082601f8301126101fe576101fd6100b6565b5b815161020e8482602086016101a7565b91505092915050565b600073ffffffffffffffffffffffffffffffffffffffff82169050919050565b600061024282610217565b9050919050565b61025281610237565b811461025d57600080fd5b50565b60008151905061026f81610249565b92915050565b60008060006060848603121561028e5761028d6100ac565b5b600084015167ffffffffffffffff8111156102ac576102ab6100b1565b5b6102b8868287016101e9565b935050602084015167ffffffffffffffff8111156102d9576102d86100b1565b5b6102e5868287016101e9565b92505060406102f686828701610260565b9150509250925092565b600081519050919050565b7f4e487b7100000000000000000000000000000000000000000000000000000000600052602260045260246000fd5b6000600282049050600182168061035257607f821691505b6020821081036103655761036461030b565b5b50919050565b60008190508160005260206000209050919050565b60006020601f8301049050919050565b600082821b905092915050565b6000600883026103cd7fffffffffffffffffffffffffffffffffffffffffffffffffffffffffffffffff82610390565b6103d78683610390565b95508019841693508086168417925050509392505050565b6000819050919050565b6000819050919050565b600061041e610419610414846103ef565b6103f9565b6103ef565b9050919050565b6000819050919050565b61043883610403565b61044c61044482610425565b84845461039d565b825550505050565b600090565b610461610454565b61046c81848461042f565b505050565b5b8181101561049057610485600082610459565b600181019050610472565b5050565b601f8211156104d5576104a68161036b565b6104af84610380565b810160208510156104be578190505b6104d26104ca85610380565b830182610471565b50505b505050565b600082821c905092915050565b60006104f8600019846008026104da565b1980831691505092915050565b600061051183836104e7565b9150826002028217905092915050565b61052a82610300565b67ffffffffffffffff811115610543576105426100d1565b5b61054d825461033a565b610558828285610494565b600060209050601f83116001811461058b5760008415610579578287015190505b6105838582610505565b8655506105eb565b601f1984166105998661036b565b60005b828110156105c15784890151825560018201915060208501945060208101905061059c565b868310156105de57848901516105da601f8916826104e7565b8355505b6001600288020188555050505b505050505050565b6103e9806106026000396000f3fe608060405234801561001057600080fd5b506004361061004c5760003560e01c806302d05d3f146100515780634a79d50c1461006f5780637284e4161461008d578063cf09e0d0146100ab575b600080fd5b6100596100c9565b6040516100669190610252565b60405180910390f35b6100776100ef565b60405161008491906102fd565b60405180910390f35b61009561017d565b6040516100a291906102fd565b60405180910390f35b6100b361020b565b6040516100c09190610338565b60405180910390f35b600260009054906101000a900473ffffffffffffffffffffffffffffffffffffffff1681565b600080546100fc90610382565b80601f016020809104026020016040519081016040528092919081815260200182805461012890610382565b80156101755780601f1061014a57610100808354040283529160200191610175565b820191906000526020600020905b81548152906001019060200180831161015857829003601f168201915b505050505081565b6001805461018a90610382565b80601f01602080910402602001604051908101604052809291908181526020018280546101b690610382565b80156102035780601f106101d857610100808354040283529160200191610203565b820191906000526020600020905b8154815290600101906020018083116101e657829003601f168201915b505050505081565b60035481565b600073ffffffffffffffffffffffffffffffffffffffff82169050919050565b600061023c82610211565b9050919050565b61024c81610231565b82525050565b60006020820190506102676000830184610243565b92915050565b600081519050919050565b600082825260208201905092915050565b60005b838110156102a757808201518184015260208101905061028c565b60008484015250505050565b6000601f19601f8301169050919050565b60006102cf8261026d565b6102d98185610278565b93506102e9818560208601610289565b6102f2816102b3565b840191505092915050565b6000602082019050818103600083015261031781846102c4565b905092915050565b6000819050919050565b6103328161031f565b82525050565b600060208201905061034d6000830184610329565b92915050565b7f4e487b7100000000000000000000000000000000000000000000000000000000600052602260045260246000fd5b6000600282049050600182168061039a57607f821691505b6020821081036103ad576103ac610353565b5b5091905056fea2646970667358221220e3affd35d0d52680964299cfdf40338c225d6f007e3e57713f80d2945f04862e64736f6c634300081c0033a26469706673582212205e27d0d57154b0cea36d7c93212f3a9037120b49671e178b2b8d80d7f3a5999a64736f6c634300081c0033",
  "linkReferences": {},
  "deployedLinkReferences": {}
}